:020000040000fa
:080000000002040000000000f2
:020000040000fa
:04000800c20300002f
:020000040000fa
:04000c0004040000e8
:020000040000fa
:0400100044040000a4
:020000040000fa
:04001400e203000003
:020000040000fa
:0400180024040000bc
:020000040000fa
:04001c007206000068
:020000040000fa
:040020006404000074
:020000040000fa
:040024007206000060
:020000040000fa
:04002800720600005c
:020000040000fa
:04002c009e0400002e
:020000040000fa
:040030007206000054
:020000040000fa
:040034007206000050
:020000040000fa
:04003800720600004c
:020000040000fa
:04003c007206000048
:020000040000fa
:040040007206000044
:020000040000fa
:040044007206000040
:020000040000fa
:04004800720600003c
:020000040000fa
:04004c007206000038
:020000040000fa
:040050007206000034
:020000040000fa
:04005400340500006f
:020000040000fa
:04005800d4040000cc
:020000040000fa
:04005c007206000028
:020000040000fa
:040060007206000024
:020000040000fa
:040064007206000020
:020000040000fa
:04006800540600003a
:020000040000fa
:04006c003606000054
:020000040000fa
:040070007206000014
:020000040000fa
:040074007206000010
:020000040000fa
:04007800720600000c
:020000040000fa
:04007c007206000008
:020000040000fa
:040080007206000004
:020000040000fa
:040084007206000000
:020000040000fa
:0400880072060000fc
:020000040000fa
:04008c0072060000f8
:020000040000fa
:0400900072060000f4
:020000040000fa
:0400940072060000f0
:020000040000fa
:0400980072060000ec
:020000040000fa
:04009c0072060000e8
:020000040000fa
:0400a00072060000e4
:020000040000fa
:0400a40072060000e0
:020000040000fa
:0400a80072060000dc
:020000040000fa
:0400ac0072060000d8
:020000040000fa
:0400b00072060000d4
:020000040000fa
:0400b40072060000d0
:020000040000fa
:0400b80072060000cc
:020000040000fa
:0400bc0072060000c8
:020000040000fa
:0400c00072060000c4
:020000040000fa
:0400c40072060000c0
:020000040000fa
:0400c80072060000bc
:020000040000fa
:0400cc0072060000b8
:020000040000fa
:0400d00072060000b4
:020000040000fa
:0400d40072060000b0
:020000040000fa
:0400d80072060000ac
:020000040000fa
:0400dc0072060000a8
:020000040000fa
:0400e00072060000a4
:020000040000fa
:0400e40072060000a0
:020000040000fa
:0400e800720600009c
:020000040000fa
:0400ec00a00500006b
:020000040000fa
:0400f0007206000094
:020000040000fa
:0400f4007206000090
:020000040000fa
:0400f800720600008c
:020000040000fa
:0400fc007206000088
:020000040000fa
:040100007206000083
:020000040000fa
:04010400720600007f
:020000040000fa
:04010800720600007b
:020000040000fa
:04010c007206000077
:020000040000fa
:040110007206000073
:020000040000fa
:04011400720600006f
:020000040000fa
:04011800720600006b
:020000040000fa
:04011c007206000067
:020000040000fa
:040120007206000063
:020000040000fa
:04012400720600005f
:020000040000fa
:04012800720600005b
:020000040000fa
:04012c007206000057
:020000040000fa
:040130007206000053
:020000040000fa
:04013400720600004f
:020000040000fa
:04013800720600004b
:020000040000fa
:04013c007206000047
:020000040000fa
:040140007206000043
:020000040000fa
:04014400720600003f
:020000040000fa
:04014800720600003b
:020000040000fa
:04014c007206000037
:020000040000fa
:040150007206000033
:020000040000fa
:04015400720600002f
:020000040000fa
:04015800720600002b
:020000040000fa
:04015c007206000027
:020000040000fa
:040160007206000023
:020000040000fa
:04016400720600001f
:020000040000fa
:04016800720600001b
:020000040000fa
:04016c007206000017
:020000040000fa
:040170007206000013
:020000040000fa
:04017400720600000f
:020000040000fa
:04017800720600000b
:020000040000fa
:04017c007206000007
:020000040000fa
:040180007206000003
:020000040000fa
:0401840072060000ff
:020000040000fa
:0401880072060000fb
:020000040000fa
:04018c0072060000f7
:020000040000fa
:0401900072060000f3
:020000040000fa
:0401940072060000ef
:020000040000fa
:0401980072060000eb
:020000040000fa
:04019c0072060000e7
:020000040000fa
:0401a00072060000e3
:020000040000fa
:0401a40072060000df
:020000040000fa
:0401a80072060000db
:020000040000fa
:0401ac0072060000d7
:020000040000fa
:0401b00072060000d3
:020000040000fa
:0401b40072060000cf
:020000040000fa
:0401b80072060000cb
:020000040000fa
:0401bc0072060000c7
:020000040000fa
:0401c00072060000c3
:020000040000fa
:0401c40072060000bf
:020000040000fa
:0401c80072060000bb
:020000040000fa
:0401cc0072060000b7
:020000040000fa
:0401d00072060000b3
:020000040000fa
:0401d40072060000af
:020000040000fa
:0401d80072060000ab
:020000040000fa
:0401dc0072060000a7
:020000040000fa
:0401e00072060000a3
:020000040000fa
:0401e400720600009f
:020000040000fa
:0401e800720600009b
:020000040000fa
:0401ec007206000097
:020000040000fa
:0401f0007206000093
:020000040000fa
:0401f400720600008f
:020000040000fa
:0401f800720600008b
:020000040000fa
:0401fc007206000087
:020000040000fa
:040200007206000082
:020000040000fa
:04020400720600007e
:020000040000fa
:04020800720600007a
:020000040000fa
:04020c007206000076
:020000040000fa
:040210007206000072
:020000040000fa
:04021400720600006e
:020000040000fa
:04021800720600006a
:020000040000fa
:04021c007206000066
:020000040000fa
:040220007206000062
:020000040000fa
:04022400720600005e
:020000040000fa
:04022800720600005a
:020000040000fa
:04022c007206000056
:020000040000fa
:040230007206000052
:020000040000fa
:04023400720600004e
:020000040000fa
:04023800720600004a
:020000040000fa
:04023c007206000046
:020000040000fa
:040240007206000042
:020000040000fa
:04024400720600003e
:020000040000fa
:04024800720600003a
:020000040000fa
:04024c007206000036
:020000040000fa
:040250007206000032
:020000040000fa
:04025400720600002e
:020000040000fa
:04025800720600002a
:020000040000fa
:04025c007206000026
:020000040000fa
:040260007206000022
:020000040000fa
:04026400720600001e
:020000040000fa
:04026800720600001a
:020000040000fa
:04026c007206000016
:020000040000fa
:040270007206000012
:020000040000fa
:04027400720600000e
:020000040000fa
:04027800720600000a
:020000040000fa
:04027c007206000006
:020000040000fa
:040280007206000002
:020000040000fa
:0402840072060000fe
:020000040000fa
:0402880072060000fa
:020000040000fa
:04028c0072060000f6
:020000040000fa
:0402900072060000f2
:020000040000fa
:0402940072060000ee
:020000040000fa
:0402980072060000ea
:020000040000fa
:04029c0072060000e6
:020000040000fa
:0402a00072060000e2
:020000040000fa
:0402a40072060000de
:020000040000fa
:0402a80072060000da
:020000040000fa
:0402ac0072060000d6
:020000040000fa
:0402b00072060000d2
:020000040000fa
:0402b40072060000ce
:020000040000fa
:0402b80072060000ca
:020000040000fa
:0402bc0072060000c6
:020000040000fa
:0402c00072060000c2
:020000040000fa
:0402c40072060000be
:020000040000fa
:0402c80072060000ba
:020000040000fa
:0402cc0072060000b6
:020000040000fa
:0402d00072060000b2
:020000040000fa
:0402d40072060000ae
:020000040000fa
:0402d80072060000aa
:020000040000fa
:0402dc0072060000a6
:020000040000fa
:0402e00072060000a2
:020000040000fa
:0402e400720600009e
:020000040000fa
:0402e800720600009a
:020000040000fa
:0402ec007206000096
:020000040000fa
:0402f0007206000092
:020000040000fa
:0402f400720600008e
:020000040000fa
:0402f800720600008a
:020000040000fa
:0402fc007206000086
:020000040000fa
:040300007206000081
:020000040000fa
:04030400720600007d
:020000040000fa
:040308007206000079
:020000040000fa
:04030c007206000075
:020000040000fa
:040310007206000071
:020000040000fa
:04031400720600006d
:020000040000fa
:040318007206000069
:020000040000fa
:04031c00b605000022
:020000040000fa
:040320007206000061
:020000040000fa
:04032400720600005d
:020000040000fa
:04032800be0500000e
:020000040000fa
:04032c00fa050000ce
:020000040000fa
:040330007206000051
:020000040000fa
:04033400720600004d
:020000040000fa
:100400002f2021000eff26000e01880000000000b2
:10041000000020000000e000020032000001200087
:100420002002880014000700550207000000e000c9
:1004300003003a00c0d7220001002000020037006c
:100440000000200001002000810f70000100320038
:100450000f000700000020000000e0000200320052
:1004600000000200000000005e2702000000000003
:100470000040da000000fe00402820000000e000fc
:1004800002003200002020009001880000000600d9
:10049000a1028800800478000000eb001f003700f4
:1004a000e284440054a0b4009905ba00e2844400f8
:1004b00054a0b4009906ba00e284440054a0b400e9
:1004c0000006eb00476fde00fd07b200ae018800ba
:1004d000636ce10003003a000ad801000000eb0061
:1004e0000e003700606ce10008003a00004deb00a0
:1004f0000a05e800020039003420ec000af0a000f0
:100500008b05e900f9ff3e00040037006168e10057
:10051000010032000086eb000b00070019c7ba008b
:100520001905ba000e04e00003003a000a00e000da
:10053000dbff3a0000000600fe07b200ae028800b2
:100540008a047800f5ff37000cd0a300e20f4d00bd
:100550001c003b0089027800354dba000a05e8000e
:10056000020039003420ec000af0a0008b05e900fd
:100570000f003200254dba000a05e80002003900dc
:100580003420ec000af0a0008b05e90008003200de
:100590000c00e0000600320015cdba000a05e800a4
:1005a000020039003420ec000af0a0008b05e900bd
:1005b0008984e80054a0b4000b00e000e2ff3a0098
:1005c000000006009902ba00055d78008b05e9007d
:1005d000f7ff3200c82ade00055d78008b05e900d0
:1005e000f3ff32000c00e000f1ff320019ddba0029
:1005f000eeff37009824040000000000943104004e
:10060000000000000e250400000000007625040014
:1006100000000000c4250400000000000e260400b5
:10062000000000007a1b040000000000841b04008e
:1006300000000000721b0400000000004a1b0400c0
:1006400000000000d819040000000000121a040085
:10065000000000002e1a040000000000941a04009c
:1006600000000000e01a040000000000441a04002a
:10067000000000001e1b040000000000ea19040036
:1006800000000000f419040000000000fe1904003e
:1006900000000000081a040000000000541a0400c2
:1006a000000000005e1a040000000000681a040048
:1006b00000000000c419040000000000721a0400c9
:1006c00000000000262b040000000000f4300400ad
:1006d00000000000802b0400000000009a2b0400a2
:1006e00000000000cc2b040000000000fa2b0400e6
:1006f000000000002a2c040000000000362c04003a
:10070000000000005c2c040000000000402c0400ed
:1007100000000000fe30040000000000083104006a
:10072000000000001231040000000000982e0400b8
:1007300000000000b41f040000000000d21f0400ed
:10074000000000004c290400000000007a29040089
:1007500000000000ae29040000000000c2290400cf
:1007600000000000f82e0400000000005e100400ed
:10077000000000000a0b040000000000fa0604005c
:10078000000000003600f800809fbe00829fbe007f
:10079000849fbe00869fbe000000fa00c028a9000a
:1007a0000000eb00f81607000080fa004f03be00bf
:1007b0004f02be004f01be004f00be003600f900e0
:1007c000004006003600f800809fbe00829fbe00f9
:1007d000849fbe00869fbe000000fa00ef1607004f
:1007e000c048a90010002000e71607000080fa00aa
:1007f0004f03be004f02be004f01be004f00be00bf
:100800003600f900004006003600f800809fbe0068
:10081000829fbe00849fbe00869fbe000000fa003b
:10082000c068a90020002000d71607000080fa0049
:100830004f03be004f02be004f01be004f00be007e
:100840003600f900004006003600f800809fbe0028
:10085000829fbe00849fbe00869fbe000000fa00fb
:10086000c088a90030002000c71607000080fa00e9
:100870004f03be004f02be004f01be004f00be003e
:100880003600f900004006003600f800809fbe00e8
:10089000829fbe00849fbe00869fbe000000fa00bb
:1008a000c608a90070002000b71607000080fa00f3
:1008b0004f03be004f02be004f01be004f00be00fe
:1008c0003600f900004006003600f800809fbe00a8
:1008d000829fbe00849fbe00869fbe000000fa007b
:1008e0002146800000102000008060000000e00031
:1008f00003003200c508a900c0002000a2160700ae
:1009000020468000700060000000e000030032001c
:10091000c488a900a00020009b1607002046800084
:10092000610060000000e00003003200c408a9007c
:10093000b000200094160700ffff37003600f800d3
:10094000809fbe00829fbe00849fbe00869fbe0027
:100950000000fa00308180000000e0000200320058
:100960003081800000000100f01f2100104078005d
:100970008040e800f01f210001487800e01f2100be
:1009800011c0b300014878000028a9000080fa00d7
:100990004f03be004f02be004f01be004f00be001d
:1009a0003600f900004006003600f800809fbe00c7
:1009b000829fbe00849fbe00869fbe000000fa009a
:1009c000508080000000e000020032005080800073
:1009d000000001003180800020808000808f500066
:1009e00002003a002188a900180037000188a900f8
:1009f0001000370030808000904078008180fb003c
:100a0000411288000000e8003080880031808000ba
:100a100090122100808f500002003a00a0022100b5
:100a2000308088003180800020808000808f5000de
:100a300005003200f0118000700060000000e0004e
:100a4000ecff320001003700000000000080fa00d7
:100a50004f03be004f02be004f01be004f00be005c
:100a60003600f900004006003600f800809fbe0006
:100a7000829fbe00849fbe00869fbe000000fa00d9
:100a8000608080000000e000020032006080800092
:100a9000000001000168a9001e00370000808000ee
:100aa0002112800081407800014878000180800098
:100ab00010132100808f5000090032000080800058
:100ac0008000e80010808000808f50000400320019
:100ad000008080000000e800008088000d003700e2
:100ae0000180800010132100808f500007003a0021
:100af0001180800090122100808f5000030032008e
:100b000090122100008088000200370010c0b3005e
:100b100008f0b700f0118000620060000000e00003
:100b2000deff32000080fa004f03be004f02be001d
:100b30004f01be004f00be003600f9000040060025
:100b4000801f78000000fa00e01180006200600061
:100b50000000e000010032003c22a9000628a900a4
:100b60000080fa004f007800004006000000fa0004
:100b700017a8a9000080fa00004006003600f8001f
:100b8000809fbe00829fbe00849fbe00869fbe00e5
:100b90003200f8003400f80010002000a0018800a6
:100ba0000020200000d0fe000200fa00e161800079
:100bb000010f7800908080000000e0000300320008
:100bc000918080001e007800010001001808a90033
:100bd0000080fa003400f9003200f9004f03be0033
:100be0004f02be004f01be004f00be003600f900ac
:100bf000004006003600f800809fbe00829fbe00c5
:100c0000849fbe00869fbe003200f8003400f800ca
:100c100010002000a00188000020200000d0fe006d
:100c20000200fa00f1618000010f7800a0808000ce
:100c30000000e00003003200a18080001e00780068
:100c4000010001001828a9000080fa003400f90012
:100c50003200f9004f03be004f02be004f01be003c
:100c60004f00be003600f900004006003600f800d4
:100c7000809fbe00829fbe00849fbe00869fbe00f4
:100c80000000fa00c0808000000001000080fa002f
:100c90004f03be004f02be004f01be004f00be001a
:100ca0003600f900004006003600f800809fbe00c4
:100cb000829fbe00849fbe00869fbe000000fa0097
:100cc000d0808000000001000080fa004f03be00c9
:100cd0004f02be004f01be004f00be003600f900bb
:100ce000004006000040da000000fe000a00fa00a2
:100cf00011002000b1bf9f00c0bf9f006a80570055
:100d0000520607004fb897000080fa000000060066
:100d10000a00fa002007980031079800420798005f
:100d2000be009000110798000000eb00000f780053
:100d30000c00370000000000d30c07000004a200e4
:100d40000004e000fcff3a001e0090001040780014
:100d50009e0090008100e80011079800aa0c07008f
:100d60001e0fe8004e0090009e007800808f50001b
:100d7000f0ff39004e0090000080fa0000000600ed
:100d8000000005000000fa0068815700cfb8970006
:100d90009089800010007800fd0107000080fa00b3
:100da000000006001a000700730007002601070074
:100db0004e010700a7000700740207001f0237005a
:100dc000918980009100780018050700110020002b
:100dd0000000e00005003500908980009000780058
:100de000a0002000c5050700cf00de000100ea00da
:100df000000006000000060080132100000006002d
:100e0000fdff0700b0898800a08988000000060067
:100e1000ec874700889fbe008a9fbe008c9fbe0063
:100e20008e1f7800000678000104780018079000f3
:100e30002805900098067800cdb79f00b80590006f
:100e40003202be002203be000400be000601be0046
:100e50004f18de006011b8008000eb00d0b79f0093
:100e6000e1b79f00f2b79f0083bf9f008004780026
:100e70000900e000060032006000b8006011b80010
:100e800004025000858258000603590087835900e8
:100e90000e00e000020035000d10a100cdb79f004c
:100ea0000900e00005003a004fb097000028a300b9
:100eb00002003a000038a300020032008a00e90074
:100ec000010037008a007800f8815700a200200056
:100ed00008007800890007000900e00003003a00dc
:100ee000cfb097000128a300080032000000e900fd
:100ef00000814500b1c2b3000900e00001003200ea
:100f0000d1c2b30001497800060037000138a300c0
:100f1000040032000000e9008080450002c2b300f6
:100f200082487800480190000201e9000001510068
:100f3000808045004fb297008a0178000c0078004d
:100f40005d0207009c0090000188a30004003200ad
:100f500098009000810f500001003d0001007800d2
:100f60004f0778004f06be004f05be004f04be007d
:100f7000cf00b100000006000200fa00889fbe000a
:100f80008a9fbe0080057800010478000200780086
:100f9000180190002805900098007800b1bf9f00cc
:100fa000b80490000200e000020035000110a1002a
:100fb000b1bf9f00ea815700820020008a007800bc
:100fc0003002be002003be00080078004b0007007e
:100fd0003fb99700f0006100040032000000e90012
:100fe0008080440002c3b300824878003fb9970074
:100ff000e8006100040032000000e9008080440045
:1010000002c2b30082487800480190000201e90062
:1010100000015100808044003fba97008a017800a7
:101020000b007800240207009b0090000188a300b9
:101030000400320098009000810f500001003d0034
:10104000010078004f05be004f04be000080fa008a
:1010500000000600ea874700889fbe008a9fbe0006
:101060008e1f780000047800030078007287570014
:1010700084e2260055c72600049fbe00c3962200c6
:10108000030f78006c875700004feb0011059000ac
:10109000a1049000910578000200e00002003200f7
:1010a0000207780001003700728757000000e00057
:1010b00002003a000e007800110507000a00e00067
:1010c000030035008a0f5000010036000a00780046
:1010d0000b02780089017800000178008e0078000a
:1010e00008007800f40107004f0778004f05be00a4
:1010f0004f04be00af00b10000000600f4874700b7
:10110000889fbe008a9fbe008c9fbe008e1f780005
:101110000605be000404be0081bf9f0082b79f0089
:10112000f3b79f00b0009000e1b79f001301780073
:1011300092b79f0090069000400090000000e900e8
:10114000000678000d00e00001003d001d002000b9
:10115000efb19700008041000048eb001e00200026
:101160001f0037000c06e9000fb09700cf80de00ab
:101170006109b900a0b79f00b1b79f00c2b79f0037
:10118000d3b79f000203be000002be000800be00ed
:101190000a01be000906070000077800efb09700bb
:1011a0000c80400003c3b300034847008d06e900ec
:1011b0000fb897000000e90080bf9f002fb2970092
:1011c000bfb297004fb39700dfb397000800be008f
:1011d0000a01be00f20507000205be000004be00c1
:1011e0000c00e0000d003400e00f5400e08f5c00c4
:1011f000e00f5d00e08f5d00daff3a000d00e000d7
:10120000d8ff3c008fb897000100e00003003400d5
:101210001fb197000218a300d2ff3a000e00e000b1
:1012200002003a00ffb197001340a1000c007800c3
:101230004f0778004f06be004f05be004f04be00aa
:101240004f01b100000006000200fa00889fbe00b6
:101250008a9fbe0000057800010478000200780033
:1012600018019000a804900098007800b1bf9f007a
:10127000b80590000200e000020035000110a10056
:10128000b1bf9f00ea815700a200200089007800ca
:101290003002be002003be000800780097ff070060
:1012a000480190000201e9000001510080804500e2
:1012b0003fba9700890178000a0078007e01070094
:1012c0009a0090000188a30004003200980090006a
:1012d000810f500001003d00010078004f05be0065
:1012e0004f04be000080fa0000000600fa874700a5
:1012f000889fbe008a9fbe008c9fbe008e1f780014
:1013000080047800010478008205780018019000bc
:101310002805900018077800b80090000200e0004f
:10132000020035000e10a10001003700120020005d
:1013300070006700e0b79f00090032003b02be006a
:101340002b03be00e00f5200e08f5a00e00f5b005d
:10135000e08f5b00020032008a86e900010037005e
:101360008a067800e8026700f5b79f0001003200a6
:101370008d06e9003b02be002b03be00e4af9f00d8
:10138000f5af9f0086b79f0097b79f004806900073
:101390000c06e9000c8040000048eb00efb297001b
:1013a0007fb297008903780081047800d8af9f004e
:1013b000020478008bbf9f008a05780003457800ff
:1013c0002b0037000c06e9006fab97006f0063003d
:1013d000e90f500002003c000003b000010037009c
:1013e0007005b0000a03fb001604b100f90f5300aa
:1013f0000c003e00000378000650a0001606b10065
:10140000f90f530007003e00b4b79f00a5b79f0037
:10141000c7b79f0063040700cfb39700afb2970030
:101420003fb297000c834400004b78000804e900a9
:101430008d06e9006fa89700ffa897000fb19700ed
:101440009fb19700460020008301d1000281d300a4
:101450008180d3000080d3000603e900faff3a0040
:10146000e0af9f00f1af9f0082b79f0093b79f004e
:10147000e10f56000f0034006fa89700ffa89700f7
:101480000fb197009fb19700e00f5000e08f580018
:10149000e00f5900e08f5900caff3a000800e00051
:1014a000c8ff3c000d00e000020034000e18a3004d
:1014b000c4ff3a0089007800f4b79f0087047800e1
:1014c0005fac97008a4178000b0578008fbd9700cc
:1014d0000500e000120032003b02be002b03be00fc
:1014e000e4af9f00f5af9f0086b79f0097b79f00be
:1014f000e00f5200e08f5a00e00f5b00e08f5b00ce
:10150000070032000c06e9000c8040000348780018
:101510000c06e9000c80400002c3b30002487800ca
:10152000ffb297000500e000040032000c06e9005d
:101530000c80400002c2b3000248780048019000cd
:101540000201e9000c0151008c8040000e0278007d
:101550008a01780009007800d70007009900900000
:101560000188a3000400320098009000810f500011
:1015700001003d00010078004f0778004f06be00d3
:101580004f05be004f04be00af01b10000000600d1
:101590000200fa00881f780000047800e2bf9f0074
:1015a00064815700080078008502070098009000c9
:1015b0000148a300010032000080eb004f047800d6
:1015c0000080fa0000000600889fbe00000478003a
:1015d0004800900082047800808f5400010036009b
:1015e000800478000901780058009000410307004a
:1015f000580090000900400050049800c800900076
:1016000089845000490498000048eb004f04be0054
:101610000000060010007800bdfd3700900190002a
:101620000388a30001003200e7ff37000348a3004e
:1016300001003a00f7ff07000000060084082000c0
:10164000848f50001d0032000d003c001408200063
:10165000848f50002700320002003c000408200064
:101660000400370024082000848f5000340032002a
:1016700044082000848f500043003a0036003700b1
:10168000040a2000848f50002700320004003c0030
:1016900004092000848f50003b003a0028003700e6
:1016a000020c2000828f50002f003200020f200019
:1016b000828f500034003a002b0037009380e900fd
:1016c0000200e00005003200810978001102fb00f1
:1016d000cfa2de00612bb900280037008109780015
:1016e000114278000482fb008002eb006033b800f6
:1016f0002200370013027800e40052000200e000ec
:1017000005003200810978001102be004fabde00f7
:101710008603780019003700810978001102be00a5
:101720006033b800150037009380e9008109780024
:1017300011027800cfa2de00612bb9000f00370044
:1017400093027800e8805200810978003102be00df
:101750002103be00090037009380e9000200e00089
:1017600002003200f1ff37009380e9008109780020
:10177000110278008002eb006033b8000498be00cc
:101780000690be001000050000000500440820007f
:10179000848f50002500320008003c00140820000f
:1017a000848f50001400320024082000848f5000e1
:1017b00024003200040820000c0037000409200037
:1017c000848f50001f00320004003c008408200079
:1017d000848f500024003a000e003700040a2000d5
:1017e000848f500011003200040c2000848f5000c0
:1017f0001d003a000d0037009380e9008109780050
:101800009100780001087800cf91de008288be0048
:10181000140037009380e900810978009100780076
:1018200001087800824878000e0037009380e900b4
:10183000810978009100780001087800820878001a
:10184000080037009380e900810978009100780052
:10185000010878006112b900612bb9008498be00bc
:101860008690be001000050000000500889fbe00a5
:10187000000478004800900082047800808f5400b3
:1018800001003600800478000901780058009000bb
:10189000980207005800900009004000500498008a
:1018a000c800900089845000490498000048eb006b
:1018b0004f04be0000000600f2874700889fbe006c
:1018c0008a9fbe008c9fbe008e1f78008004780027
:1018d0000105780002047800830578006107620042
:1018e00002003a008b0f540008003900080178000c
:1018f0008a0078000900780048ff07008b0f540029
:1019000002003900880578001e003700088655005f
:101910000c017800f00f5600010036000201200093
:10192000010220007e805700790207008c067800b3
:101930000500370002012000fe80570009007800f2
:1019400036ff0700f0865600ef8f5600f9ff3e0085
:101950004461de0000ff2f008091b9000c014100be
:10196000fe805700090078002cff07000e00e00001
:1019700004003a00080178008a0078000900780025
:1019800026ff07000b0078004f0778004f06be00c7
:101990004f05be004f04be002f01b100000006003d
:1019a00000000500000005000000050000017800af
:1019b0000040eb008080fb0081804000231e21005e
:1019c00081814100134278000404e00004003a00e1
:1019d000301e210081004000114078000000060008
:1019e00092017800934f520005003a00301e21000a
:1019f00081004000114078000309e8000100370031
:101a00000040e800ea4f5000eaff36000000060000
:101a1000f6874700889fbe008a9fbe008c9fbe004d
:101a20008e1f780000057800010478008305780097
:101a3000040678000000eb00c0b79f008080eb0038
:101a4000d1b79f00e0b79f00f2b79f0000082000c9
:101a500080bf9f0098007800010078008004eb00b0
:101a6000010037008904e800304178000204e000fa
:101a70000300320053c2b300834f5100f9ff3a0014
:101a80000900e00004003200090178000a00780033
:101a9000e2fe0700188c44001807780050c2b3001b
:101aa0009e4f10003f013a000e07e8000e0c780030
:101ab00010003700cfb097000100a0000b003700e6
:101ac000cfb097000110a00008003700cfb09700fa
:101ad0000120a00005003700cfb097000130a00022
:101ae00002003700cfb097000140a000c1b79f00af
:101af000000ce8001800780090407800b2c2b300f3
:101b000082cf5000f1ff320007003c0002c2b30058
:101b100082cf5000f0ff320032c2b30082cf5000bb
:101b200007003a00efff3700d2c2b30082cf500067
:101b3000e0ff320002c3b30082cf5000e0ff32006a
:101b4000a2c2b30082cf50000d003a00000ce800a2
:101b50001c80e900000e780010007800e0b79f00bc
:101b60000000e0000f003d00cfb097000100a20090
:101b7000c1b79f000000ea00e0b79f0009003700ee
:101b800084010700e0b79f0001003700000ce80067
:101b9000180078009000fb000103b100e98f5000ad
:101ba000faff36004fb097000008a3000200320091
:101bb0000010a100c0b79f0018007800e1c2b30078
:101bc00090cf100016003a008000eb00d1b79f00c4
:101bd0000000e800000c7800a1c2b30090cf100014
:101be00006003a00000ce8001c80e900000e7800b6
:101bf00010007800d0b79f0009003700650107008a
:101c0000d0b79f0001003700000ce80018007800f2
:101c10009000fb000103b100e98f5000faff36008d
:101c20000800780061ff07008046780018007800ff
:101c30001000fb005402070091062000810f5000a5
:101c40003800320012003c0041062000810f500095
:101c5000340032000a003c0011062000810f5000c1
:101c60002000320031062000810f5000a000320019
:101c700051022000810f5000bc003a00b400370030
:101c800071062000810f5000b8003c00880037002a
:101c900001072000810f50005c00320007003c006b
:101ca000e1062000810f50007a003200f10620008a
:101cb000810f5000ad003a00390037005107200075
:101cc000810f50002700320081072000810f500053
:101cd0004200320031072000810f5000a3003a007b
:101ce0008f0037008d80fb000c01780000fe2f0074
:101cf0000f004000360207000000e000a80032009c
:101d000018007800000ce8009041780002fe2f00d7
:101d10000f014100f88057000a00780021ff0700fa
:101d20000e0037008d80fb008c017800120020002f
:101d300000fe2f000f00400040fe07000000e00002
:101d400097003200180ce80002fe2f000f0141003e
:101d5000f88057000a0078002dfc070080844400ba
:101d6000900037008d80fb008c0178000001eb00b3
:101d700000fe2f000f00400030fe07000000e000d2
:101d800087003200180ce80002fe2f000f0141000e
:101d9000f88057000a0078002bfd0700efff37009e
:101da0008d80fb008c0178000001eb0000fe2f000d
:101db0000f00400021fe07000000e0007800320024
:101dc000180ce80002fe2f000f014100f8805700b8
:101dd0000a00780068fc0700e0ff37008d80fb00f8
:101de0008c0178000001eb0000fe2f000f00400086
:101df00012fe07000000e0006900320018007800c1
:101e0000000ce800904178001c0037008c0178003d
:101e10000001eb00010f200000fe2f000f0040002a
:101e200006fe07000000e0005d003200180ce8002c
:101e30000fb097009fb097002fb19700bfb19700e8
:101e4000e00f5000e08f5800e00f5900e08f59007c
:101e500009003a00cfb597006fb49700a01d21008c
:101e6000a70107000b0278008801780000017800c4
:101e7000a11d21004700370083c7b30002fe2f00d9
:101e80000f014100f88057000a00780017fd070095
:101e9000b2ff37000b8144008d80fb008c0178007d
:101ea00000fe2f000f00400038fe07003c00370006
:101eb0008d80fb000c01780000fe2f000f00400019
:101ec000c30107000000e000350032001800780070
:101ed000000ce8009041780002fe2f000f01410045
:101ee000f88057000a007800aefe07009bff37001d
:101ef00000c8b30080cf560029003a00180ce80053
:101f00001c80e900000e780010407800e0df9f00a0
:101f100013002000e2fd2f000f01410008003700f0
:101f200000c8b30080cf56001d003a00180ce8002e
:101f30001c80e900000e78008001eb0010017800a1
:101f4000f88057000a00780042fc070083ff370042
:101f500000c8b30080cf560011003a00180ce8000a
:101f60004fb29700efb19700080037000e0c7800d1
:101f70000000eb00c0b79f00e0b79f000080eb00bf
:101f8000d0b79f000002eb0084017800120020000f
:101f9000011e21000a00780047fe07006fff37008e
:101fa000180ce800090078004f0778004f06be00c3
:101fb0004f05be004f04be006f01b10000000600d7
:101fc0008200fa00889fbe008a1f78000005780012
:101fd00082047800c13f9f000004eb00100037002e
:101fe0000902780088017800a2f72f000f01410054
:101ff00081f72f008f8040000a00780084fe0700e0
:1020000008004000880f500004003d00b00420008c
:10201000009088000084eb00040037000004780082
:102020004f3897001004e000edff3a0008007800f8
:102030004f0578004f04be000080fa000000060043
:10204000889fbe000004be000000eb000800e00016
:1020500018003200180090000058a3000d00320054
:10206000d800900068009000808f50000900360072
:10207000b80990000001eb008200780008007800a9
:1020800003000100d80090000080eb000100e00098
:10209000080032000000eb00200c9800600498005b
:1020a000500498000900e000020032001800780097
:1020b0000efb07004f04be0000000600889fbe0014
:1020c0000004be000000eb000800e0002500320024
:1020d000180090000058a30011003200d8009000b2
:1020e00068009000808f500009003600b809900009
:1020f0000001eb0082007800080078000300010076
:10210000d80090000080eb000100e00015003200d4
:102110000000eb00200c9800600498005004980028
:10212000780a900008109000800f520006003100dd
:102130000002520011002000cfa2de00612bb90086
:1021400018007800650007000000eb0000149800fc
:10215000700c98000900e0000200320018007800be
:10216000e2fa07004f04be0000000600800078007d
:102170001000200002022000828f50000400320074
:10218000e9805000e48f5000010036000000eb00b1
:1021900000000600889fbe008a1f780000057800b6
:1021a0000a047800984478000805e8000900fb005c
:1021b000eeff07000000e000f9ff3a00b0c2b300f4
:1021c00080cf540005003200d0c2b3008000eb0085
:1021d00080cf540005003a00020037008000eb0079
:1021e00001003700110020000804e8000000eb00a7
:1021f00003003700ea00b900020050000003b000fd
:102200003801fb0003fd2f0082814100e98f51005e
:10221000f8ff36000100e00001003a000000ea008b
:102220004f0578004f04be0000000600889fbe00e6
:102230008a1f780080047800010578000900780082
:10224000af000700000478008a01780008017800d8
:1022500011002000090078000a00070080007800c3
:102260000080eb00888f500001003a000000eb0076
:102270004f0578004f04be000000060010007800f3
:10228000a3fa3700889fbe008a1f78008104780077
:102290000204780089c5b9000900e00001003a0095
:1022a0000004eb000a017800800078000300780049
:1022b000d8fc0700800078008a8f500003003200ad
:1022c000050009008980d800000478000800780023
:1022d0004f0578004f04be0000000600a0fd2f004f
:1022e000f1ff2f009e0007004f89de008201780079
:1022f000000006008001780002003700b159780024
:102300000201e9000200e000fcff3a0000000600c4
:10231000889fbe008a9fbe00800478000200e00013
:102320005b00320001407800814c780082814400db
:10233000f1f99f00e20f51005500360091449800da
:10234000a1449800e1f99f00d1f99f00e60f5100e8
:102350004f003600b1449800c1f99f00e80f5100ca
:102360004b0036000905ea00630565000a84440055
:102370000a055100c1ff2f00010565000080fb0028
:102380008000eb001210200013102000e500070071
:10239000008cbe000a01440060b99f0071b99f0023
:1023a000e80f55003a0036002004980031049800e8
:1023b000400498005104980020b99f0031b99f0053
:1023c00040b99f0051b99f00f80f5500300036000a
:1023d0006004980071049800000c9800110c98009b
:1023e000200c9800310c9800400c9800510c98007b
:1023f00020b19f0031b19f0040b19f0051b19f00bb
:1024000060b19f0071b19f0000b99f0011b99f009a
:102410006401640078014100020444000205550093
:102420006011b8000203be000002be000403be003b
:102430006022b80000007200818072000201730007
:102440008381730010003700009cbe000294be0020
:1024500040049800510498006204980073049800a6
:10246000000c9800110c9800220c9800330c980076
:10247000400c9800510c9800620c9800730c980066
:102480000a02b1000802b000ff0f5500eeff3e0047
:10249000090078004f05be004f04be000000060092
:1024a0000200fa0081017800e0ff9f009300900095
:1024b0000188a30005003200d30090008058780006
:1024c0000080fb00d10198000a00370012002000b4
:1024d0008f80e900030078004efc07008000780040
:1024e0000080eb000100e00002003200eff89700ee
:1024f0000180fb000080fa0000000600e8ff3700c2
:1025000080007800040037003104e00002003a0047
:102510000000510000000600010178000108a3003e
:10252000f9ff3a008101780031017800f4ef2f00c3
:10253000020242000281ea0002016200040828004f
:1025400004016100f7ff3200830078000101780088
:102550003104e000fdff3a000000510000000600d9
:1025600002002f00f3ff2f00820f5000838f5800ce
:10257000040036000000ea00009088000080eb00b4
:102580008080eb0000000600f1fb2f0080804000ff
:10259000f98f500001003e000050a000000006002e
:1025a000f9ff3700f1f92f0080804000f98f5000cb
:1025b00001003e00f005b20000000600f9ff370000
:1025c000000006000efa0700fdff0700fcff3700c1
:1025d000881f78000004780000082000808f5000d9
:1025e0001700350010082000808f50000b003400c9
:1025f00030082000808f500011003a0092007800cf
:1026000068805000000978003002be002003be0040
:10261000049cbe000694be000700370092027800ba
:1026200064805200000978001000be000900070015
:10263000009cbe000294be00100020000100370084
:102640000000eb004f0478000000060000c0da0034
:1026500000000600810378001d0007000001be0095
:102660006000b8000478a30013003a006220e10083
:1026700015003e000d0039008301d1000281d30016
:102680008180d3008301d1000281d3008180d300f7
:102690008301d1000281d3008180d3000538b000ce
:1026a000c42add00f300b2008381720007f0a700a6
:1026b00003f0a0000000060083ff270002002000b6
:1026c0006110b900f9ff370003ff2700f7ff37005b
:1026d000c70ade00f107b200f50fb20008003200b1
:1026e000e1cf4200020032000170a000240005008a
:1026f000810f70000100320004080500440005004d
:10270000810f700002003a00140005008502e90004
:102710000000400081c04800fcff3b000170a000a9
:1027200024000500020ab900001bb9000200b8002d
:10273000810042008100430000000600889fbe0027
:102740008a9fbe0030044200b0844a0030054b002e
:1027500090854b006000b1000898be000a90be0052
:102760000440e10005c8e10006d0e10007d8e1001f
:1027700002003100680040001008e8004f05be006c
:102780004f04be0000000600889fbe008a9fbe0066
:102790003004be002005be000418540005985c00fb
:1027a00006185d0007985d00110020000440e1005c
:1027b00005c8e10006d0e10007d8e10001003900ba
:1027c0008000eb00108810004f05be004f04be00d3
:1027d000000006001200fa00889fbe008a9fbe001b
:1027e0008c9fbe00e0b79f00f1b79f0082bf9f00a3
:1027f00093bf9f000605be000404be000000eb006e
:10280000d0b79f00c0b79f00b0b79f00a0b79f0090
:1028100090b79f00000678005fb19700cfb0970097
:10282000820141003fb097000200e00004003d003b
:10283000370007007e805700c0ff07000300370005
:10284000330007007e805700cfff0700dfb69700f8
:102850000d00e0000c0035006fb29700ffb297004a
:102860000fbb97009fbb97001000200001002000c5
:102870006011b800000272008182720002037300ce
:10288000838373001b0007000c06e800010420008e
:10289000810f5600e0ff3a000d00e00004003d000b
:1028a0000802be000a03be007e805700a3ff070097
:1028b0005fa897000000e00005003a001fb29700f3
:1028c000afb297003fb39700cfb39700090007005e
:1028d0006fb09700ffb097000fb997009fb99700ae
:1028e0004f06be004f05be004f04be000080fa0038
:1028f000000006000100070000000600a4b79f00ca
:10290000b5b79f00c6b79f00d7b79f00000006006d
:102910004f09de0082817100b3b79f004f01de00d6
:102920008180400082807000a1b79f008fb0970027
:102930004f09de00000040000200700090b79f00c9
:102940007fa897004f01de008180400082807000e8
:1029500081b79f000d0007004f3ade0000004000e5
:1029600004007000f0af9f0008000700040242005e
:1029700085824a0006034b0087834b00dfff070078
:102980000802be000a03be00000006002fb2970036
:10299000bfb297004fb39700dfb397000000060067
:1029a000881f780018002000881f780089ff070022
:1029b0008f87e9004f04780000000600801feb00bd
:1029c00084ff07008f87e90000000600889fbe0093
:1029d0008a9fbe00e00f5000e08f5800e00f5900c2
:1029e000e08f59000c003d006044b8006055b8000d
:1029f0000000540081805c0002015d0083815d0065
:102a0000180020001500070008003d00180007000e
:102a10000004eb00050037000004eb000f00070086
:102a200002003d001200070018002000dcff070034
:102a30000800e000060032006022b8006033b800f1
:102a40000000520081805a0002015b0083815b001c
:102a50004f05be004f04be0000000600e00f52000c
:102a6000e08f5a00e00f5b00e08f5b000000060083
:102a70006044b8006055b8000402540085825c00d0
:102a800006035d0087835d0000000600889fbe008e
:102a90008a9fbe008c1f7800e00f5000e08f580026
:102aa000e00f5900e08f59000d003d006044b80070
:102ab0006055b8000000540081805c0002015d0098
:102ac00083815d001c0020000820e10009a8e100ce
:102ad0000ab0e1000bb8e1000d003d00080037002e
:102ae0000006eb00e00f5200e08f5a00e00f5b00a1
:102af000e08f5b0006003d006044b8006055b80000
:102b00000402540085825c0006035d0087835d003b
:102b1000aaff07000c00e000060032006022b800a7
:102b20006033b8000000520081805a0002015b004f
:102b300083815b004f0678004f05be004f04be0046
:042b4000000006008b
:020000040000fa
:102b4400000000000000000000000000005f000022
:102b5400000000000007000000070000001400004f
:102b64007f1400007f140000242a00007f2a000044
:102b740012230000130800006462000036490000bc
:102b84005522000050000000050300000000000072
:102b9400001c00002241000000000000412200004f
:102ba4001c000000140800003e0800001408000087
:102bb400083e00000808000000500000300000003b
:102bc4000008000008080000080800000060000079
:102bd4006000000000200000100800000402000053
:102be4003e510000494500003e000000427f0000c5
:102bf40040000000426100005149000046210000ed
:102c0400414500004b31000018140000127f000001
:102c14001027000045450000453900003c4a0000eb
:102c2400494900003001000071090000050300005b
:102c340036490000494900003606000049490000b1
:102c4400291e0000003600003600000000000000cd
:102c54005636000000000000081400002241000065
:102c640000140000141400001414000000410000bb
:102c740022140000080200000151000009060000af
:102c840032490000794100003e7e0000111100002d
:102c9400117e00007f49000049490000363e0000d3
:102ca40041410000412200007f4100004122000018
:102cb4001c7f000049490000494100007f090000d1
:102cc40009090000013e000041490000497a000062
:102cd4007f080000080800007f000000417f00001a
:102ce4004100000020400000413f0000017f00003f
:102cf40008140000224100007f4000004040000012
:102d0400407f0000020c0000027f00007f040000ee
:102d1400081000007f3e000041410000413e0000d9
:102d24007f09000009090000063e0000415100002f
:102d3400215e00007f0900001929000046460000ba
:102d44004949000049310000010100007f010000f1
:102d5400013f000040400000403f00001f200000f1
:102d6400402000001f3f000040380000403f0000aa
:102d740063140000081400006307000008700000da
:102d840008070000615100004945000043000000ad
:102d94007f41000041000000020400000810000010
:102da40020000000414100007f00000004020000f8
:102db40001020000044000004040000040400000c8
:102dc4000001000002040000002000005454000030
:102dd400547800007f480000444400003838000064
:102de40044440000442000003844000044480000eb
:102df4007f3800005454000054180000087e00007e
:102e040009010000020c000052520000523e000072
:102e14007f0800000404000078000000447d0000e6
:102e24004000000020400000443d0000007f0000fe
:102e34001028000044000000004100007f40000012
:102e4400007c000004180000047800007c080000e6
:102e540004040000783800004444000044380000b2
:102e64007c1400001414000008080000141400006e
:102e7400187c00007c0800000404000008480000de
:102e84005454000054200000043f0000444000005b
:102e9400203c000040400000207c00001c2000007a
:102ea400402000001c3c000040300000403c00007a
:102eb4004428000010280000440c0000505000007a
:102ec400503c000044640000544c000044000000e6
:102ed4000836000041000000000000007f000000f0
:102ee4000000000041360000080000001008000047
:102ef40008100000087800004641000046780000f1
:102f0400262b0000f4300000802b00009a2b0000d8
:102f1400cc2b0000fa2b00002a2c0000362c0000d9
:102f24005c2c0000402c0000262b0000fe3000002a
:102f3400802b00009a2b0000cc2b0000fa2b000001
:102f44002a2c0000362c00005c2c0000402c0000d1
:102f5400262b000008310000802b00009a2b000073
:102f6400cc2b0000fa2b00002a2c0000362c000089
:102f74005c2c0000402c0000262b000012310000c5
:102f8400802b00009a2b0000cc2b0000fa2b0000b1
:102f94002a2c0000362c00005c2c0000402c000081
:102fa400000000004d4f00004445000020320000a6
:102fb40020530000617600006520000041440000b9
:102fc40043200000766100006c750000653a000043
:102fd4002025000075200000616400006472000078
:102fe40065730000733a000020300000782500006b
:102ff400580a0000007400006f6f0000206d00008c
:1030040075630000682e00000000000060000000ee
:103014000f00000000000000600100000f0000002d
:1030240000000000200000000f000000000000006d
:10303400200100000f00000000000000200100003b
:083044000f0000000000000075
:020000040000fa
:10304c000400fa00000f7800110798001e01900090
:10305c009e0078000000eb00ad0107000080fa0034
:10306c00000006000400fa00000f78001107980019
:10307c001e0190009e00780010002000a4010700a3
:10308c000080fa00000006000400fa00000f78002f
:10309c00110798001e0190009e007800200020006f
:1030ac009b0107000080fa00000006000400fa00f3
:1030bc00000f7800110798001e0190009e00780008
:1030cc0030002000920107000080fa00000006008a
:1030dc000400fa00000f7800110798001e01900000
:1030ec009e00780040002000890107000080fa0053
:1030fc00000006000400fa00204798001000200091
:10310c00000f7800a08b8000620060000000e000df
:10311c0032003a0050172100ae4090000148780070
:10312c00a08b80000000a100a08b8800a08b8000e9
:10313c000010a000a08b8800a08b80000030a100a4
:10314c00a08b8800e0002000f08b8800401f20003e
:10315c00e08b8800a08b80000020a000a08b880052
:10316c00a0b72100108c88000000eb00708c880048
:10317c00a0b72100208c88000000eb00808c880018
:10318c00a0b72100308c88000000eb00908c8800e8
:10319c00a0b72100408c88000000eb00a08c8800b8
:1031ac0040b82100508c88000000eb00b08c8800e7
:1031bc0015050700f204070020b72100c70507001a
:1031cc00a0b42100cb050700a0b42100cf05070057
:1031dc00d20407000000eb00000f78001e007800fe
:1031ec000080fa00000006000200fa00004f780090
:1031fc00501721001e4878000080fa0000000600dd
:10320c000200fa0010002000000f7800a08b800054
:10321c00610060000000e0000a003a00a08b800012
:10322c000010a100a08b88005017210080c0eb007b
:10323c0001487800d2040700cc040700018c800000
:10324c00010f78001e0078000080fa0000000600d4
:10325c000200fa00004f7800c40407001e80fb0037
:10326c00e08b8800ad0407000080fa000000060027
:10327c000400fa00000f780011079800a08b800062
:10328c00640060000000e000070032001e007800bf
:10329c00b08b88009e009000c18b8800a08b8000b2
:1032ac000020a100a08b88000080fa00000006001e
:1032bc000400fa002047980010002000000f78004e
:1032cc00a08b8000610060000000e00013003a0059
:1032dc00a08b80000000a000a08b88000000eb00f9
:1032ec00000f78002e4090000004e0000300320034
:1032fc0010002000f08b8800020037002000200016
:10330c00f08b8800e2040700890407000004a20087
:10331c000004e000010032000d0007001e007800e0
:10332c000080fa00000006000000fa0010c0b30094
:10333c00dfff07000080fa00000006000000fa0022
:10334c000040eb00daff07000080fa0000000600e6
:10335c000000fa00030037000000eb0092040700a5
:10336c00c9000700a08b8000610060000000e00035
:10337c00f9ff3a000080fa00000006000000fa0095
:10338c00c0040700a08b80000000a100a08b880067
:10339c000000eb00008c8800e00020000080fa00a8
:1033ac00000006000000fa00a08b80000000a100c5
:1033bc00a08b88000000eb00008c8800e00020004f
:1033cc000080fa00000006000000fa00b4040700b8
:1033dc00100020000080fa00000006000000fa0037
:1033ec00af040700200020000080fa000000060057
:1033fc000000fa00aa040700100020000080fa0068
:10340c00000006000000fa00a90407000000eb0011
:10341c000080fa00000006000000fa00a08b80007b
:10342c000030a000a08b88005017210010407800bd
:10343c000080fb0000004000004078000004a00069
:10344c00b4040700500020000080fa0000000600c1
:10345c000000fa00a08b80000030a000a08b880038
:10346c00501721001040780000404000a9040700cc
:10347c00300020000080fa00000006000000fa0076
:10348c00a08b80000030a100a08b8800980407005e
:10349c00400020000080fa00000006000000fa0046
:1034ac00a2040700500020000080fa000000060073
:1034bc000000fa00a2040700a00020000080fa001f
:1034cc00000006000000fa009d0407009000200098
:1034dc000080fa00000006000000fa00a08b8000bb
:1034ec000030a100a08b880020002000008c8800f8
:1034fc00318c8000908c8000010001000080e9007c
:10350c00e10f500002003e00b9ff07000100370038
:10351c00bcff07000080fa00000006000000fa0063
:10352c00670407000004e0000e003200418c8000ac
:10353c00a08c800001000100e20f5000030032005b
:10354c00e30f500003003200040037009eff070019
:10355c0016003700a1ff070014003700a9ff070071
:10356c0012003700a08b80000030a100a08b8800d7
:10357c00b08b8000904078000000e800b08b880091
:10358c000140780063040700c08b80000000e90054
:10359c00c08b8800c08b80000000e000020032006d
:1035ac003000200001003700600020000080fa008d
:1035bc00000006000000fa00881f7800b88b80001d
:1035cc004f040700004c78000800e800b08b88001e
:1035dc00c08b80000000e900c08b8800c08b80008d
:1035ec000000e000030032005004070050002000ef
:1035fc000c003700a08b80000020a000a08b88005e
:10360c00118c8000708c8000010001000080e900aa
:10361c00e10f500002003e00aaff07000100370036
:10362c00a3ff07004f0478000080fa00000006009a
:10363c000000fa00a08b80000020a000a08b880066
:10364c00118c8000708c800001000100e20f500092
:10365c000a003900e30f500003003600e40f50005d
:10366c00030032000500370061ff0700040037003b
:10367c00c8030700300020000100370061ff07007d
:10368c000080fa00000006000000fa00bc030700ee
:10369c00a08b8000680060000000e0000500320094
:1036ac00070407000004e00002003200f0002000d4
:1036bc00f08b8800f08b800080004000a019210066
:1036cc00008040001000780000000100f08b8800a2
:1036dc000080fa00000006000000fa006b040700ee
:1036ec000080fa00000006000200fa00000f7800cb
:1036fc00100020000080fa00000006000200fa0012
:10370c00000f7800500020000080fa000000060036
:10371c000600fa00000f78001107980022079800a5
:10372c001e0090000000e0000f0032009e007800a8
:10373c00678040008000400040172100008040005e
:10374c009e009000010878009e0078006d8040007b
:10375c00800040004017210000804000ae00900027
:10376c00010878000e0037009e007800678040004a
:10377c00800040004017210000804000a1b72100cc
:10378c00010878009e0078006d80400080004000a9
:10379c0040172100008040008000eb0001087800f9
:1037ac000080fa00000006000000fa00774ea90025
:1037bc00a307070030002000a5070700774ea800dc
:1037cc000080fa00000006000a00fa00881f78004a
:1037dc00204798002107980062479800734798008b
:1037ec00044f98002e4090000004e00001003200cd
:1037fc00774ea9000040eb00004f78000600370020
:10380c001e80fb00ae00900000804000104078004d
:10381c00b80707001e4fe8006e4090009e407800ed
:10382c0080cf5000f6ff39000040eb00004f7800cd
:10383c00070037001e80fb00ae00900000844000a3
:10384c0000c0eb00ab070700004c78001e4fe800ef
:10385c007e4090009e40780080cf5000f5ff3900ec
:10386c000e4890000004e00001003200774ea800e2
:10387c004f0478000080fa00000006000000fa00f7
:10388c00801f210061c0b3000148780014c0b30050
:10389c008041eb0012c0b300811f210010c0b300a7
:1038ac00c9ff07000080fa00000006000000fa00c3
:1038bc00801f210041c0b3000148780014c0b30040
:1038cc008041eb0012c0b300811f210010c0b30077
:1038dc00bdff07000080fa00000006000000fa009f
:1038ec00801f210001c8b3000148780014c0b30048
:1038fc008041eb0012c0b300811f210010c0b30047
:10390c00b1ff07000080fa00000006000000fa007a
:10391c00801f210051c0b3000148780014c0b300cf
:10392c0013c0b30012c0b300811f210010c0b3003c
:10393c00a5ff0700801f2100104078000080fa00ce
:10394c00000006000200fa00004f7800801f2100e2
:10395c0001c5b3000148780014c0b3008041eb00ee
:10396c0012c0b300811f210010c0b30096ff0700e6
:10397c00801f210011c0b30001487800901f210066
:10398c001e48780014c0b3008041eb0022c0b30085
:10399c00811f210010c0b3008bff07000080fa00cc
:1039ac00000006000000fa0000000000d7ff07002e
:1039bc000080fb0061006000004078000004e00023
:1039cc00faff3a000080fa00000006000400fa003a
:1039dc00008fbe001e00be004008de008040780054
:1039ec00901f2100014878001e00be004809dd0030
:1039fc004800de0000007100c808de00804078003e
:103a0c00a01f2100014878001e007800804078003b
:103a1c00b01f2100014878000080fa000000060069
:103a2c000000fa0095ff0700801f210071ccb30045
:103a3c000148780014c0b3008041eb0012c0b30001
:103a4c00811f210010c0b3005fff0700d5ff0700e6
:103a5c0096ff07000080fa00000006000400fa0040
:103a6c00008fbe0085ff0700801f210001c2b3003c
:103a7c00014878001e00be00d4ff070014c0b3003c
:103a8c008041eb0042c0b300811f210010c0b30085
:103a9c004dff0700c3ff070084ff07000080fa00fa
:103aac00000006000a00fa00008fbe0022079800f2
:103abc003307980044079800baff0700801f2100c5
:103acc00b1c0b300014878001e00be00bfff070064
:103adc00c01f21008040eb00014878000042eb0041
:103aec008041eb0052c0b300811f210010c0b30015
:103afc0035ff07002e0090000040780014c0b30082
:103b0c00804178000041eb00ce0090000040eb00bb
:103b1c002dff07000080fa00000006000600fa00e6
:103b2c0010079800210798009eff0700801f2100b6
:103b3c00b1c0b300014878001e009000ae009000a8
:103b4c00a2ff0700c01f21008040eb000148780055
:103b5c000042eb008041eb0052c0b300811f2100fa
:103b6c0010c0b30018ff070014c0b30013c0b3009b
:103b7c000041eb008e0078000040eb0012ff0700c4
:103b8c001e4078000080fa00000006000600fa00d3
:103b9c00008fbe004247980082ff070037ff0700e6
:103bac00801f210021c0b300014878001e00be0018
:103bbc0086ff0700c01f2100ce409000014878000e
:103bcc0014c0b3008041eb0052c0b300811f210030
:103bdc0010c0b300fcfe070072ff070033ff0700a4
:103bec000080fa00000006000a00fa001007980096
:103bfc0021079800320798004307980069ff0700d7
:103c0c001eff0700801f2100d1cab30001487800b5
:103c1c001e009000ae0090006cff07004e0090005c
:103c2c0090407800c01f2100014878004e009000a1
:103c3c000000e80090407800d01f21000148780077
:103c4c0014c0b3008041eb0062c0b300811f21009f
:103c5c0010c0b300dcfe070052ff0700200020005c
:103c6c00000f780016003700801f2100d1cab30066
:103c7c00014878004e0090001e00400090407800f3
:103c8c00901f2100014878001e00e800ce00900033
:103c9c000080400090407800a01f2100014878006f
:103cac0014c0b3008041eb0032c0b300811f21006f
:103cbc0010c0b300c4fe07003aff07001e8fe800d7
:103ccc003e0090009e007800808f5000e6ff390087
:103cdc00f6fe07000080fa00000006000200fa0061
:103cec00000f7800e5fe0700801f210011c0b30013
:103cfc0001487800901f21008040eb0001487800bb
:103d0c0014c0b3008041eb0022c0b300811f21001e
:103d1c0010c0b300acfe0700d8fe07001e007800f0
:103d2c0000407800804078000174a000801f2100c2
:103d3c000148780014c0b3008041eb0012c0b300fe
:103d4c00811f210010c0b3009ffe07000080fa0005
:103d5c00000006000400fa00801f2100f1c9b30026
:103d6c000148780014c0b30033c0b30012c0b300d4
:103d7c00811f210010c0b30093fe0700801f21009b
:103d8c00104078000080fb008000eb00008fbe002c
:103d9c001e01be004818dd00c810de008100700056
:103dac004810dd00008fbe00901f210010407800ed
:103dbc000080fb008000eb001e1f70001e9770003f
:103dcc001e01be004818dd00c810de008100700026
:103ddc004810dd00008fbe00a01f210010407800ad
:103dec000080fb008000eb001e1f70001e9770000f
:103dfc001e00be000080fa00000006000200fa005f
:103e0c000040eb00004f780001003700000000007c
:103e1c0065fe0700801f2100f1c9b300014878003e
:103e2c0014c0b30033c0b30012c0b300811f210013
:103e3c0010c0b30064fe0700801f21009040780082
:103e4c00f0cbb30080cf500005003a00901f21004a
:103e5c009040780050c2b30080cf50000600320072
:103e6c001e4fe8001e4078000004e000e7ff3a0017
:103e7c0010c0b300030037000040eb00b1fe070098
:103e8c000040eb000080fa00000006000000fa0081
:103e9c002188a9002168a90000082000c011880011
:103eac003a22ef003c22ef0020022000f0118800a3
:103ebc0070062000001288004222ef004c22ef0016
:103ecc004e22ef005022ef005222ef005422ef005e
:103edc005622ef005822ef005a22ef005c22ef002e
:103eec00a002210030808800a002210020808800e0
:103efc009012210010808800901221000080880010
:103f0c000870ef0040fb21000800070020fd210095
:103f1c00150007002168a80039e2a80038a2a80003
:103f2c003882a8000080fa00000006000200fa00a7
:103f3c00000f78001e0078000000e00003003a003b
:103f4c0040fb210050808800020037009e00780062
:103f5c00518088000080fa00000006000000fa0082
:103f6c000080fa00000006000200fa00000f780042
:103f7c001e0078000000e00003003a0020fd210044
:103f8c0060808800020037009e0078006180880005
:103f9c000080fa00000006000000fa000080fa0021
:103fac00000006000200fa000040eb00004f780011
:103fbc00000000001180800000808000808f500085
:103fcc00fcff320010808000104f780010808000c1
:103fdc000000e80010808800118080002013210070
:103fec00808f500002003a0090122100108088004f
:103ffc001e4078000080fa00000006000200fa0063
:10400c00004f7800000000001c0007000004a20014
:10401c000004e000fcff3a00208080001e4878007d
:10402c00208080000000e800208088002180800033
:10403c0090122100808f500002003a00a002210053
:10404c00208088002188a8000080fa00000006006b
:10405c000000fa0011808000008080000080680061
:10406c0000f0a7000000ea000000ea004f00de00ac
:10407c00004078000080fa00000006000400fa00fe
:10408c003180800011079800218080001e00900074
:10409c00808f5000060031009e0090002080800030
:1040ac00008050000000e900000f78000500370088
:1040bc009e0090002080800000805000e00fb00037
:1040cc00000f78001e00780000f0a7000000ea0046
:1040dc000000ea004f00de00004078000080fa008b
:1040ec00000006000000fa00218080003080800073
:1040fc00808f500009003a00e11180000008200078
:10410c000080600000f0a7000000ea000000ea0058
:10411c004f00de0000407800010037000040eb004b
:10412c000080fa00000006000400fa000180800004
:10413c0011079800108080009e009000808f500026
:10414c00060031009e00900010808000008050001e
:10415c0069004000000f7800030037009e009000bb
:10416c0010808000008f5000f00f20009e0078001f
:10417c00808f50000200360000c0eb0002003700b8
:10418c001e007800004078000080fa000000060055
:10419c000400fa0031808000110798002180800013
:1041ac001e009000808f5000060031009e00900091
:1041bc0020808000008050000000e900000f780093
:1041cc00050037009e009000208080000080500089
:1041dc00e00fb000000f7800f00f20009e00780078
:1041ec00808f50000200360000c0eb000200370048
:1041fc001e007800004078000080fa0000000600e5
:10420c000800fa002007980031079800c6ff070045
:10421c000080fb00000f78003e0090009e0f5000c5
:10422c0002003100be009000010f78000000eb008e
:10423c0010079800090037005aff0700ae009000e5
:10424c00804878002e0090000000e80020079800bd
:10425c001e0090000000e800100798001e0090005f
:10426c009e0f5000f4ff39001e0078000080fa0009
:10427c00000006000800fa0020079800310798009b
:10428c00c3ff07000080fb00000f78003e00900089
:10429c009e0f500002003100be009000010f78000c
:1042ac000000eb0010079800090037002e0090006a
:1042bc0010407800ae0090008100e80021079800c3
:1042cc004eff07001e0090000000e8001007980049
:1042dc001e0090009e0f5000f4ff39001e00780065
:1042ec000080fa00000006000400fa000000eb0059
:1042fc00000f78008cff070020479800a4ff0700f0
:10430c00304798002e4090000080fb000000e00039
:10431c0003003200e90f50000300320004003700a4
:10432c001e20a000040037001e00a0000200370071
:10433c001e10a000000000003e4090000080fb001a
:10434c000000e00003003200e90f500003003200cf
:10435c00040037001e30a000020037001e40a000f1
:10436c00000000001e0078000080fa00000006002b
:10437c000400fa0010079800118080001e009000c5
:10438c00008f4000020037009e007800698f5000bb
:10439c00201321009e007800808f5000faff3e0011
:1043ac001e007800104078000080fa000000060023
:1043bc000000fa005cff07000080fb000000e90031
:1043cc004f00de00004078000080fa00000006007c
:1043dc000000fa006eff07000080fb000000e900ff
:1043ec004f00de00004078000080fa00000006005c
:1043fc000400fa00f01180008000eb00008fbe007a
:10440c001e00be00c001dd0002002000e011800093
:10441c008000eb0000007100818071000080fa00c8
:10442c00000006000000fa0059ff07000004e0003d
:10443c00100032003180800020808000808f50007e
:10444c0006003600308080008000780020808000dc
:10445c00008050000000e900070037003080800029
:10446c00800078002080800000805000e00fb000b9
:10447c00010037000000eb000080fa00000006008d
:10448c000000fa0028ff07000004e00010003200d2
:10449c001180800000808000808f50000600360064
:1044ac001080800080007800008080000080500028
:1044bc000000e900070037001080800080007800c1
:1044cc000080800000805000680040000100370030
:1044dc000000eb000080fa00000006000000fa006b
:1044ec0039e2a80038a2a8003882a8000080fa009f
:1044fc00000006000000fa0039e2a90038a2a90069
:10450c003882a9000080fa00000006000000fa00c2
:10451c0001e2a9000080fa00000006000000fa0089
:10452c002228a8002208a8000080fa00000006003b
:10453c000000fa0010418000620060000000e00002
:10454c0004003a0010418000610060000000e000af
:10455c000200320010002000010037000000eb00c8
:10456c00004078000080fa00000006000000fa000d
:10457c002228a9002208a9000080fa0000000600e9
:10458c000000fa000228a9000208a9000080fa0025
:10459c00000006000000fa000228a8000208a8008b
:1045ac000080fa00000006000200fa00000f7800fc
:1045bc0010408000620060000000e00010003a0033
:1045cc0010408000610060000000e0000c003a0028
:1045dc0010408000620060000000e00008003a001b
:1045ec0010408000610060000000e00004003a0010
:1045fc00001920000100200052070700f4ff3700cb
:10460c000080fa00000006000000fa000110800093
:10461c0000002800008060000000e00007003a0065
:10462c000422ef0000002800001088002001200068
:10463c008010880010c0b300010037000040eb0070
:10464c000080fa00000006000000fa000110800053
:10465c0000002800008060000000e00006003a0026
:10466c000222a8000202a80000c2a80001e2a800d1
:10467c0010c0b300010037000040eb000080fa00ce
:10468c00000006000000fa000080fa00000006009e
:10469c000000fa000002a8000080fa0000000600ea
:1046ac000000fa000022a8000080fa0000000600ba
:1046bc000000fa000042a8000080fa00000006008a
:1046cc000000fa0020108000ff800a0000000000ab
:1046dc000080fb0000f0a7000000ea000000ea00e8
:1046ec004f00de00004078000080fa000000060059
:1046fc000000fa000062a8000080fa00000006002a
:10470c000000fa00c0108000004078000080fa0021
:10471c00000006000200fa00004f78001e80fb002b
:10472c00a01088000080fa00000006000000fa00cb
:10473c0000a2a9000082a8000080fa000000060078
:10474c000000fa0000a2a8000082a8000080fa0075
:10475c00000006000000fa000182a8000080fa00a8
:10476c00000006000000fa002010800062006000cb
:10477c000000e00004003a0020108000610060009e
:10478c000000e000020032001000200001003700a1
:10479c000000eb00004078000080fa0000000600ea
:1047ac000000fa002010800033800a000000000096
:1047bc000080fb0000f0a7000000ea000000ea0007
:1047cc004f00de00004078000080fa000000060078
:1047dc000000fa0021108000000220000080600020
:1047ec0000f0a7000000ea000000e9004f00de0026
:1047fc00004078000080fa00000006000000fa007b
:10480c002010800044800a00000000000080fb00a3
:10481c0000f0a7000000ea000000ea004f00de00f4
:10482c00004078000080fa00000006000000fa004a
:10483c002010800055800a00000000000080fb0062
:10484c0000f0a7000000ea000000ea004f00de00c4
:10485c00004078000080fa00000006000000fa001a
:10486c002010800022800a00000000000080fb0065
:10487c0000f0a7000000ea000000ea004f00de0094
:10488c00004078000080fa00000006000000fa00ea
:10489c000542a9000080fa00000006000000fa00a2
:1048ac0002a2a8000080fa00000006000000fa0036
:1048bc0002a2a9000080fa00000006000000fa0025
:1048cc0002c2a8000080fa00000006000000fa00f6
:1048dc0002c2a9000080fa00000006000200fa00e3
:1048ec00000f78009e007800b18088000080fa00ec
:1048fc00000006000200fa00000f78009e0078000d
:10490c00c18088000080fa00000006000200fa0056
:10491c00000f78009e007800d18088000080fa009b
:10492c00000006000200fa00000f780011002000c1
:10493c001e0078004efa07008000eb000000eb0030
:10494c00bff90700400020000080fa0000000600bc
:10495c000400fa00004f7800114798002247980095
:10496c00000000001e407800e2f907000000e000a3
:10497c00fcff32000e80e8008000780080492200a5
:10498c00aff907000e00e8001100200038fa07000c
:10499c008000eb0040192300bbf9070067fa070001
:1049ac000000000016fa0700e10f5000fdff320076
:1049bc000080fa00000006000600fa00004f7800a4
:1049cc001107980022079800000000001e40780094
:1049dc00c8f907000000e000fcff3200ae009000b8
:1049ec001e00900022fa07008000eb004019230003
:1049fc00a5f9070051fa07000000000000fa0700b3
:104a0c00e10f5000fdff32000080fa0000000600ac
:104a1c000200fa00000f7800110020001e00780040
:104a2c0013fa07008000eb000000eb0084f907008c
:104a3c00200020000080fa00000006000800fa00a8
:104a4c006047980071479800a0c2b3004047980097
:104a5c0020002000000f7800190037000000000033
:104a6c006e409000a3f907000000e000fcff32004c
:104a7c006400470080007800e050220070f90700c5
:104a8c006700470011002000f9f907008000eb00d7
:104a9c00401923007cf9070028fa0700d8f9070011
:104aac00100798001e009000e10f5000fbff320031
:104abc001e0090000000e000050032001e0fe9000f
:104acc001e0078000000e000e4ff3a00010037000f
:104adc00000000004e4090000080fa00000006002c
:104aec000200fa00000f7800210020001e00780060
:104afc00dff907008000eb000000eb0050f9070025
:104b0c00200020000080fa00000006000400fa00db
:104b1c002047980031479800000000002e4090007c
:104b2c0074f907000000e000fcff32008e007800f2
:104b3c006057220042f90700630047001100200073
:104b4c00cbf907008000eb00401923004ef9070059
:104b5c00faf9070000000000a9f90700e10f500066
:104b6c00fdff32001e007800c800dd004800de00aa
:104b7c00008070000080fa00000006000200fa00bd
:104b8c00000f7800210020001e007800b8f9070003
:104b9c008000eb000000eb0029f90700400020002a
:104bac000080fa00000006000400fa00004f7800b4
:104bbc001147980012079800000000001e40780072
:104bcc004cf907000000e000fcff32000e80e8000a
:104bdc0080007800405c220019f907000e00e80004
:104bec0011002000a2f907008000eb0040192300ff
:104bfc0025f90700d1f907000000000080f9070033
:104c0c00e10f5000fdff32000080fa0000000600aa
:104c1c000200fa00000f78001e0078009000780067
:104c2c001e0078001000900091f907008000eb0046
:104c3c000000eb0002f90700200020000080fa00c1
:104c4c00000006000a00fa004047980051479800ff
:104c5c0032079800430798003e0090001007980018
:104c6c00ce009000010f7800000000004e40900034
:104c7c0020f907000000e000fcff32008e007800f5
:104c8c00e0602200eef807006500470011002000ec
:104c9c0077f907008000eb0040192300faf80700b1
:104cac00a6f907000000000055f90700e10f5000bd
:104cbc00fdff32000080fa00000006000600fa003a
:104ccc00004f7800110798002207980000000000a0
:104cdc001e40780007f907000000e000fcff3200de
:104cec00ae0090001e00900061f907008ef90700dd
:104cfc000000000042f90700e10f5000fdff3200f8
:104d0c000080fa00000006000000fa0001eba80089
:104d1c000080fa00000006000000fa0008cba80092
:104d2c000080fa00000006000000fa0008cba90081
:104d3c000080fa00000006000200fa00000f780064
:104d4c000080fa00000006000400fa00100798002a
:104d5c001e009000e10f500008003200e10f5000df
:104d6c0003003900e20f5000070032000900370041
:104d7c00d1618000010f780006003700e1618000ee
:104d8c00010f780003003700f1618000010f7800fb
:104d9c00000000001e0078000080fa0000000600f1
:104dac000400fa00100798001e009000e10f50005c
:104dbc000f003200e10f500003003900e20f5000e9
:104dcc00150032001e0037009059800077800a00d1
:104ddc00000000000080fb0000f0a7000000ea00cb
:104dec000000ea004f00de00004f7800140037008e
:104dfc009059800088800a00000000000080fb00b1
:104e0c0000f0a7000000ea000000ea004f00de00fe
:104e1c00004f78000a0037009059800099800a00f2
:104e2c00000000000080fb0000f0a7000000ea007a
:104e3c000000ea004f00de00004f78000000000088
:104e4c001e4078000080fa00000006000400fa0002
:104e5c000000eb00000f7800afff07000000eb0034
:104e6c00000f7800010037001e0fe800703e200094
:104e7c009e007800808f5000fbff3400aaff0700d3
:104e8c000000000090be8400c5ff07000004a200d3
:104e9c000004e000fbff3a0090be8400aaff07006c
:104eac00100798001e0090000080fa000000060019
:104ebc000a00fa0003050700d703070092ff07005a
:104ecc0090be84009cff0700ccfb07000000eb00a9
:104edc00000f78000100370000000000dbff070026
:104eec0010079800a173800000082000008060006b
:104efc000000e0002b003a0000818000118180004e
:104f0c00d6fa07001e009000404798001e00900043
:104f1c004800de005047980000818000118180001d
:104f2c004e41900019fb0700008180001181800028
:104f3c0061004000e08048005e41900013fb0700d8
:104f4c000081800011818000f4fa0700008180004c
:104f5c001181800061004000e0804800effa0700fa
:104f6c00008180001181800062004000e0804800d8
:104f7c00008188001181880030c0b3001ffc07003d
:104f8c004e4090001dfc07005e4090001bfc07008b
:104f9c00c0cfb30019fc070000a82100610020005d
:104fac00e8040700a173800000102000008060005e
:104fbc000000e0002c003a00703e20009e007800bb
:104fcc00808f50001b003e000000200011002000cc
:104fdc0030079800410798003e009000ce009000ea
:104fec009efa07001e0090000040780000417800f7
:104ffc003e009000ce009000e4fa07003e009000c6
:10500c00ce009000c5fa07003e009000ce00900044
:10501c00809fbe009e009000811f7800407d29007b
:10502c00801f780054ef0700e88757001e0fe80038
:10503c0006003700d07f29005eef07000300370021
:10504c0000c4290001002000be040700a1738000e9
:10505c0000102000008060000000e000f8ff32002b
:10506c000000eb00000f780000a821006100200078
:10507c00b4040700a17380000020200000806000b1
:10508c000000e00094ff3a0065fa070000a8210038
:10509c0061002000ab04070090ff37000000fa000d
:1050ac00002bef000006200010588800042bef00a6
:1050bc00062bef00082bef000a2bef000c2bef0058
:1050cc000e2bef00102bef00122bef00142bef0028
:1050dc00162bef00202bef00003020001059880019
:1050ec00382bef00402bef00482bef00502bef003c
:1050fc003a2bef00422bef004a2bef00522bef0024
:10510c003c2bef00442bef004c2bef00542bef000b
:10511c003e2bef00462bef004e2bef00562bef00f3
:10512c0000402000505b880000402000705b88002d
:10513c0000402000905b880000402000b05b88009d
:10514c00a02bef00a42bef00a82bef00ac2bef0053
:10515c00d02bef00d22bef00d42bef00d82bef008d
:10516c0000302000b05e880000302000d05e880047
:10517c00f02bef00f22bef00022cef00c09422007a
:10518c0045000700a09722005b000700e09a220070
:10519c0073000700209c22007b0007001808a90060
:1051ac003808a8001828a9003828a8001160800029
:1051bc0000f02000010070001060880001eba800d6
:1051cc0027000700802bef00822bef00842bef00d1
:1051dc00862bef00882bef008a2bef008c2bef0037
:1051ec008e2bef00902bef00922bef00942bef0007
:1051fc0000102000b05c880010102000c05c8800fb
:10520c000080fa00000006000000fa00000ca80064
:10521c000000000001608000001020000080600091
:10522c000000e000fbff32000a0ba8000080fa002f
:10523c00000006000000fa00002ca800000000008e
:10524c000160800000202000008060000000e00071
:10525c00fbff32000a2ba8000080fa0000000600b9
:10526c000000fa0000eca8000000000001608000c3
:10527c0000002800008060000000e000fbff32000e
:10528c000aeba8000080fa00000006000000fa00fb
:10529c000080fa00000006000200fa00000f7800ff
:1052ac001e007800708088000080fa000000060064
:1052bc000000fa0051408000004020000080600097
:1052cc000000e00006003200708080000000e0006a
:1052dc000200320070808000000001000b48a90021
:1052ec000080fa00000006000200fa00000f7800af
:1052fc000080fa00000006000200fa00000f78009f
:10530c001e007800808088000080fa0000000600f3
:10531c000200fa0091598000000820000080600013
:10532c000000e00008003200d1618000010f78001d
:10533c00808080000000e00003003200818080004b
:10534c001e007800010001000080fa000000060039
:10535c000200fa00000f78000080fa00000006003e
:10536c000200fa00000f78001e0078009080880080
:10537c000080fa00000006000200fa00000f78001e
:10538c000080fa00000006000200fa00000f78000e
:10539c001e007800a08088000080fa000000060043
:1053ac000400fa00204798000040eb00004f780002
:1053bc00ae40900011479800220020008e0078002b
:1053cc00c0c3b3007cfd07000080fa00000006009b
:1053dc000400fa002047980000c4b300004f780086
:1053ec00ae40900011479800220020008e007800fb
:1053fc00c0c3b30070fd07000080fa000000060077
:10540c000000fa00e0cab300e5ff070050cdb3007e
:10541c00e3ff070000c8b300e1ff070080cab30038
:10542c00dfff0700f0c3b300ddff070030cdb30092
:10543c00dbff07000040eb00d9ff070000c4b300fe
